:020000040002F8
:10600000587D0020C1630200C9630200CB63020017
:10601000CD630200CF630200D163020000000000E4
:10602000000000000000000000000000D363020038
:10603000D563020000000000D7630200D9630200AC
:10604000716F0200DB63020059750200DB6302001E
:10605000DB630200DB630200496C0200DD700200BA
:10606000DB630200DB630200DB630200DB63020030
:10607000DB630200DB630200DB630200DB63020020
:10608000DB630200C5700200DB630200DB63020019
:10609000DB630200DB630200A9720200DB63020023
:1060A000DB630200DB630200DB630200DB630200F0
:1060B000C56F0200DB63020000000000000000006A
:1060C000DB630200DB630200DB630200DB630200D0
:1060D000DB630200DB630200DB6302000000000000
:1060E00000000000000000000000000000000000B0
:1060F00000000000000000000000000000000000A0
:10610000000000000000000000000000000000008F
:10611000000000000000000000000000000000007F
:10612000000000000000000000000000000000006F
:10613000000000000000000000000000000000005F
:10614000000000000000000000000000000000004F
:10615000000000000000000000000000000000003F
:10616000000000000000000000000000000000002F
:10617000000000000000000000000000000000001F
:10618000000000000000000000000000000000000F
:1061900000000000000000000000000000000000FF
:1061A00000000000000000000000000000000000EF
:1061B00000000000000000000000000000000000DF
:1061C00000000000000000000000000000000000CF
:1061D00000000000000000000000000000000000BF
:1061E00000000000000000000000000000000000AF
:1061F000000000000000000000000000000000009F
:10620000DFF80CD000F012FC00480047E1C40200A7
:10621000587D002030B4044654E8000F0D4644E891
:106220000053002BF8D1156030BC704730B40446E1
:1062300054E8000F40EA010544E80053002BF7D171
:10624000156030BC704730B4044654E8000F00EAD3
:10625000010544E80053002BF7D1156030BC7047AE
:1062600030B4044654E8000F80EA010544E80053C6
:10627000002BF7D1156030BC704730B4044654E8A9
:10628000000F00EB010544E80053002BF7D1156027
:1062900030BC704730B4044654E8000FA0EB010551
:1062A00044E80053002BF7D1156030BC704770B440
:1062B00004464FF0000054E8006F0D68AE4207BF7F
:1062C00044E80023012044E800630E60002B1CBF5B
:1062D0000020F0E770BC704730B4044654E8000F6B
:1062E00088422CBF451A054644E80053002BF5D1DF
:1062F000156030BC7047000030B450E8012F93B2F5
:10630000C48923448489A34228BF1B1B0489A34258
:1063100002BFBFF32F8F002007E0C3EA020340E86B
:106320000134002CE9D14FF001000A6030BC704705
:1063300050E8012FC2EA024240E801210029F7D1CA
:10634000704730B450E8022F1FFAA2F3C488A3426A
:1063500002BFBFF32F8F00200DE0C489234484893E
:10636000A34228BF1B1BC2EA034340E80234002CAF
:10637000E8D14FF001000A6030BC704750E8022FAE
:10638000C2EA224240E802210029F7D170470346C1
:1063900053E8022FD988B2EB324F4FF0000017BFFD
:1063A00092B241EA014142EA014104E05A68B2EB8B
:1063B000324F08BF012043E80212002AE8D170479B
:1063C0000648804706480047FEE7FEE7FEE7FEE78F
:1063D000FEE7FEE7FEE7FEE7FEE7FEE7C17202002A
:1063E000016202002DE9F05F0546002092469B46BF
:1063F00088460646814640241BE0284641464746DB
:10640000224600F05DFA53465A46C01A914110D315
:1064100011461846224600F016F82D1A67EB0108BF
:106420004F4622460120002100F00DF817EB00092D
:106430004E41201EA4F10104DFDC484631462A46C5
:106440004346BDE8F09F202A04DB203A00FA02F11F
:10645000002070479140C2F1200320FA03F3194352
:106460009040704740EA01039B0703D009E008C948
:10647000121F08C0042AFAD203E011F8013B00F809
:10648000013B521EF9D27047D2B201E000F8012B55
:10649000491EFBD270470022F6E710B513460A46A4
:1064A00004461946FFF7F0FF204610BD421E12F8C1
:1064B000013F002BFBD111F8013B02F8013B002BFF
:1064C000F9D17047421C10F8011B0029FBD1801A3A
:1064D000704730B504460020034600E05B1C934241
:1064E00003D2E05CCD5C401BF8D030BD034611F810
:1064F000012B00F8012B002AF9D1184670472DE92D
:10650000FE4F804681EA0300C00F0C46009021F048
:10651000004123F00045B8EB0200A94105D24046F6
:10652000214690461C460B46024623F0004010438D
:1065300047D0270DC7F30A00C3F30A510290401A4F
:10654000019040286BDAC3F3130040F4801B0098DD
:10655000924620B10023D2EB030A63EB0B0B0198A8
:106560005946C0F140025046FFF76DFF06460D4602
:1065700050465946019A00F0B3F910EB080061410A
:10658000002487EA115284EAE7731A4340D0009A44
:1065900062B3019A012A4FEA075215DC001B61EB36
:1065A00002014FF0004202EA0752CDE90042001C0E
:1065B00041F5801132462B4600F0EAF903B0BDE800
:1065C000F08F40462146F9E7001B61EB0201001CF9
:1065D00041F5801300185B412018A2F5001747EB26
:1065E000030140EAD570B6196D4111E06D084FEA1C
:1065F000360645EAC0754FEA0752001B61EB0201FF
:10660000001C41F5801149084FEA30000019514142
:1066100032462B4603B0BDE8F04F00F0AAB900980F
:10662000012240000023D0EB020263EBE0730098EC
:1066300021464FEAE074B8EB000061EB0401E9E7A2
:1066400083F000435BE781F0004158E72DE9FE4FFE
:1066500081EA030404F0004421F0004100944FF06B
:10666000000B23F0004350EA01045ED052EA030419
:106670005BD0C3F30A54C1F30A552C44A4F2F3349B
:106680000194A0FB0254C1F3130141F48011C3F340
:10669000130343F4801301FB024400FB034E840AFE
:1066A000970A44EA815447EA8357A4FB0768029596
:1066B0008D0A05FB07854FEA932C04FB0C54270534
:1066C000029D4FEA065847EA1637B5EB08056EEB10
:1066D000070C870E920E47EA811742EA8312A7FB46
:1066E0000201B6EB0B0164EB00042B0D43EA0C3303
:1066F0005E1844EB1C50DA465146E7FB0201C5F335
:1067000013044FEA0B3343EA14534FEA0432019C5B
:1067100043EA0603A4F10C040294009CCDE900B402
:1067200000F036F903B0BDE8F08F00200146F9E72C
:106730002DE9F04D81EA030404F0004B21F00045FF
:1067400014464FF0000A23F0004150EA050220D021
:1067500054EA01021DD0C5F30A570246C5F31303DC
:10676000C1F31300C1F30A5640F4801543F48013BB
:10677000A7EB0608101BD64608F2FD3873EB0500A0
:1067800002D308F1010801E092185B41B8F1000F53
:1067900003DA00200146BDE8F08D00204FF480119F
:1067A000064684460EE0171B73EB050705D3121B44
:1067B00063EB050306434CEA010C49084FEA30003D
:1067C00092185B4150EA0107EDD152EA030012D062
:1067D00082EA040083EA0501084305D0101BAB419F
:1067E00006D20122002306E000224FF0004302E01F
:1067F0006FF0010253101AEB06004CEB085110EB3E
:106800000A0041EB0B01BDE8F04D00F0B2B80EB547
:10681000C10F80EAE0700844CA07002140F2334308
:106820008DE80E000A460B4600F0B2F803B000BD3A
:1068300000F0004230F000400AD0C10D01F5607157
:10684000C0F3160042EA0151C208400711437047E5
:10685000002001467047000030B5041E71F10004AD
:1068600004DB4FF00044404264EB0101141E73F15D
:10687000000405DB1C464FF00043524263EB040367
:10688000994208BF904230BD01F0004330B421F07E
:10689000004150EA010206D00A0DA2F56072C1F370
:1068A0001301002A02DC30BC00207047440F44EA88
:1068B000C104C100E01830BC00EBC25000F022B8A7
:1068C000202A04DB203A21FA02F00021704721FA45
:1068D00002F3D040C2F120029140084319467047AC
:1068E000202A06DBCB17203A41FA02F043EAE07394
:1068F00006E041FA02F3D040C2F120029140084381
:10690000194670470029A8BF7047401C490008BFBE
:1069100020F00100704710B4B0FA80FC00FA0CF0CF
:1069200050EA010404BF10BC704749B1CCF1200407
:1069300021FA04F411FA0CF118BF01212143084394
:10694000A3EB0C01CB1D4FEA00614FEA102042BFC0
:10695000002010BC704700EBC35010440029A4BFB6
:1069600010BC7047401C490008BF20F0010010BC5B
:10697000704710B5141E73F1000408DA401C41F191
:10698000000192185B411A4301D120F0010010BDB3
:106990002DE9F04D92469B4611B1B1FA81F202E029
:1069A000B0FA80F220329046FFF74DFD04460F46C4
:1069B00040EA0A0041EA0B0153465A46084313D005
:1069C000114653EA010019D0C8F140025046FFF7C2
:1069D00077FF05460E46504659464246FFF733FDBF
:1069E000084305D0012004E020463946BDE8F08D7B
:1069F0000020054346EAE0762C4337430A986305B6
:106A0000E40AA0EB08000022FD0A44EA47540A30D9
:106A100002D500200146E9E7010510196941DDE9C9
:106A2000084500196941BDE8F04DA2E7064C074D45
:106A300006E0E06840F0010394E80700984710344E
:106A4000AC42F6D3FFF7E0FB682403008824030080
:106A500070B58C1810F8015B15F0070301D110F820
:106A6000013B2A1106D110F8012B03E010F8016B4D
:106A700001F8016B5B1EF9D12B0705D40023521ED0
:106A80000DD401F8013BFAE710F8013BCB1A921C38
:106A900003E013F8015B01F8015B521EF9D5A14236
:106AA000D8D3002070BD000038B504460020009007
:106AB0000D2006F06CFA012811D14948007870B910
:106AC000012047490870474908700AF0D7FD00F0D7
:106AD00047FA112006F050FA122006F04DFA0D2068
:106AE00006F055FAE8B93E480078D0B100203C499C
:106AF00008703D4908703D4908703A49087005F032
:106B0000D9F8032002F0E6F800F02AFA112006F086
:106B100033FA122006F030FA0C2006F02DFA0AF0B3
:106B2000CBFD0E2006F033FA50B93148007838B961
:106B300001202E4908702E49087000202A4908704B
:106B40000E2006F024FA012808D12948007828B13F
:106B50000020274908700120234908702148007847
:106B600098B12248007820B100202049087005F033
:106B700095F81D48007890B300201B49087005F077
:106B800099F8032002F0B0F829E01A480078C8B15B
:106B900019480078B0B91748407818490870154866
:106BA000807848700A211648FFF775FC6A46144938
:106BB000124800F01EFA6946114801F0CFFB002090
:106BC0000C4908700F48007848B101F0D7F809F077
:106BD00044FC00F0C5F900F059FF0AF078F938BD1F
:106BE000102B00203C2B0020132B0020122B002008
:106BF000112B00203E2B00203B2B0020152B0020CA
:106C0000402D0020382B002038B50446002000908D
:106C10000A210948FFF73FFC6A460749074800F088
:106C200045FA0748007830B90648007818B969462F
:106C3000014801F093FB38BD402D00203D2B002082
:106C40003B2B00203E2B00202DE9F04F89B0002780
:106C5000002008904FF4807007900126002412E075
:106C6000079806F0F1F940B100BF7B48006830405A
:106C700018B1079806F0DAF9374376000798001D37
:106C800080B20790641C082CEAD34FF4BE7006F063
:106C9000DBF950B14FF4BE7006F0C8F947F0004779
:106CA00008AA0121002006F0A7F9F8B200B30126D6
:106CB00000241BE006EA0700B0B100BF674850F8A7
:106CC0002400C0F30420804600BF644850F824002C
:106CD000C0F301408146204602F066FC054615B12E
:106CE00049464046A84700BF7600641C082CE1D303
:106CF00007F0004000287DD0002006900590002578
:106D000005E04FF0FF3004A941F825006D1C002D6F
:106D1000F7D000BF0020069000245FE05048005DDF
:106D20000390039820F0C0094D480057401C0028EC
:106D300053D004A9484605F067FE00284DD00398BB
:106D40004FEA901A484602F077FC804602F02CFC8D
:106D50000290029810B9BAF1030F3DD1BAF1030FB6
:106D600003D105A9484605F05AFE00BF00BF4FF009
:106D7000A041084600F5E06151F82910C1F301482F
:106D800000BF08A9484605F03FFE8346BBF1000F4F
:106D900002D0B8F1020F05D0BBF1000F1BD1B8F142
:106DA000030F18D1BAF1030F0FD1B8F1020F01D1BF
:106DB000032000E0022001904846019906F0C3F844
:106DC0000698401CC0B2069000BF029818B1514608
:106DD0004846029A904700BF00BF641C042C9DD314
:106DE000069888B34FF0010803AA0121002006F09D
:106DF00003F900E02DE000250BE003A850F8250082
:106E000008A951F82510884202D04FF0000802E08E
:106E10006D1C002DF1D000BFB8F1000F02D0002092
:106E2000069010E000250CE003A850F8250008A902
:106E300041F8250005A850F8250004A941F82500CF
:106E40006D1C002DF0D000BF069800287FF462AFC3
:106E500000BF09B0BDE8F08F04630040106500403A
:106E6000CC3A002070B50124344A0021344800F0A7
:106E7000A1FD044600BF254625B100BF284600F00D
:106E800083FD00BF00BF2D4A00212E4800F092FD77
:106E9000044600BF254625B100BF284600F074FD1A
:106EA00000BF00BF254A0021274800F083FD0446AB
:106EB00000BF254625B100BF284600F065FD00BF94
:106EC00000BF1E4A0021214800F074FD044600BFA7
:106ED000254625B100BF284600F056FD00BF00BF83
:106EE000164A00211A4800F065FD044600BF2546F9
:106EF00025B100BF284600F047FD00BF00BF154A7E
:106F00000021154800F056FD044600BF254625B176
:106F100000BF284600F038FD00BF00BF0D4A002129
:106F20000E4800F047FD044600BF254625B100BFCE
:106F3000284600F029FD00BF00BF70BD79C00200E7
:106F4000282003002C2003003020030034200300FD
:106F50003820030025C202003C200300402003002B
:106F600010B5024806F04AFE10BD00001C2B0020A0
:106F700010B54FF4807005F044FE80B14FF480707E
:106F800005F048FE012005F04FFE0D48407930B96C
:106F900001200B49487108460168002088474FF4DA
:106FA000827005F02EFE50B14FF4827005F032FE73
:106FB000022005F039FE024801680120884710BD13
:106FC000F42B002010B50249024804F0A5FD10BDC5
:106FD000042C002000C00140F8B504460F461546B9
:106FE0001E462B46224639460020009600F028F81F
:106FF000F8BDF8B504460D4616462B46224601213B
:107000000520009600F01CF8F8BDF8B504460F46C0
:1070100015461E462B46224639460120009600F0B2
:107020000FF8F8BDF8B504460F4615461E462B4628
:10703000224639460220009600F002F8F8BD000012
:107040002DE9F04106460D4617461C46DDF818802E
:10705000322D02DD0020BDE8F081FC2020700120EF
:107060006070A670E5702A463946201DFFF7FAF9D0
:107070000022A91CA01C02F0EBFD05490880281D78
:10708000204409880180A81D88F800000020E2E75C
:10709000182B0020F8B504460D4616462B4622460E
:1070A000012104200096FFF7CBFFF8BDF8B5044698
:1070B0000D4616462B462246012103200096FFF777
:1070C000BFFFF8BD10B5034A1068034A116888472E
:1070D00010BD0000502C00204C2C0020FEB54FF4B9
:1070E000827006F097F8002837D04FF4827006F0CF
:1070F0009BF86C4890F82E0018B16A4890F82F0061
:1071000058B300208DF8000066484068019065483B
:107110000189ADF80810C06818B9002061490874E9
:1071200012E06048008B5F4948830846C0684860A9
:107130000846008B08810020C860084690F82E00A1
:1071400010B9002006F092F8564801686846884752
:107150000020544981F82F0000BF524890F82E00BB
:10716000002852D04FF4807006F054F800284CD01C
:107170004FF4807006F058F84A48408B494991F81E
:107180002D10884216DD4748408B464991F82D1056
:10719000401A444948830A4612890B465B8BD21A2F
:1071A0000B465B6803EB42000A4692F82D1006F08E
:1071B0001DF823E03B48408B3A4991F82D10884256
:1071C0000FD13848C06860B10120364981F82F00DE
:1071D000002048830A4692F82D10D06806F006F881
:1071E0000CE03048408B2F4991F82D10884205D192
:1071F00001202C4981F82F00002048834FF4827031
:1072000006F012F8042006F031F84FF4887006F00A
:1072100001F870B14FF4887006F006F8002021499B
:10722000087402208DF80000084601686846884707
:1072300000BF4FF48A7005F0EDFF38B14FF48A704B
:1072400005F0F2FF0020174908742AE01548456947
:1072500024E0B5FA85F64FF00040F0408543B000D9
:1072600000F58C74204605F0D5FFB8B1204605F036
:10727000DBFF01208DF80000A4F58C70C0F3C7007F
:107280008DF80400A4F58C70012121EA90018DF89D
:107290000510044801686846884700BF002DD8D112
:1072A00000BFFEBDD83A002010B506F011F910BDA0
:1072B00001480249086070470090D003A02C0020CC
:1072C00010B502F0E5FF28B192480088C0F3042011
:1072D0009149086003F030F810B190489049486730
:1072E00003F052F830B18B48E0380068C0F3423008
:1072F0008C49086003F072F828B18B48006820F0D0
:1073000080708949086003F081F848B100208749FE
:1073100008604FF08041C1F810018249091F0860E0
:1073200003F09EF818B103207E496431086003F031
:10733000AFF868B105207E49086001207C497831AA
:10734000086000207A49083108603F20091F086062
:1073500003F0B6F8002855D06E48E0300068754953
:1073600008606C48E4300068091D08606948E8302E
:107370000068091D08606748EC300068091D086056
:107380006448F0300068091D08606248F430006805
:10739000091D08605F48F8300068664920310860C0
:1073A0005C48FC300068091D086063480068091DDE
:1073B00008606148001D0068091D08605E480830CB
:1073C0000068091D08605C480C300068091D0860F1
:1073D0005948103000685749403108605648143009
:1073E0000068091D0860544818300068091D0860CD
:1073F00051481C300068091D08604F482030006863
:10740000091D086002F01AFF30B14248CC3800680C
:1074100000F04F004949086002F064FF40B148485D
:10742000006800F0010018B16FF0010044490860E5
:1074300002F09AFF28B14348006840F48060414957
:10744000086039487438006840F47000364974396F
:10745000086000BF00BF00BFBFF34F8F00BF00BF79
:1074600000BF00BF00BF00BFBFF36F8F00BF00BFF2
:1074700000BF3548006800F0004028B93248001DC0
:10748000006800F00040E8B301203049086000BF08
:107490002F4800680028FBD015202B49086000BF4A
:1074A0002B4800680028FBD015212748001D0160EB
:1074B00000BF274800680028FBD00020234908604F
:1074C00000BF234800680028FBD000BF00BF00BFFA
:1074D00000BF00BFBFF34F8F00BF00BF00BF124807
:1074E000F038006800F4E0601A490843001D0E49B6
:1074F000F039086000BF00BF00BFBFF34F8F00BF6F
:1075000000BF00E003E000BF00BF00BFFDE7FFF7E2
:10751000CFFE10BD24030010403501400DF0ADBA80
:1075200000C007403C050040FCED00E00C010040BD
:107530001056004020C5004024040010E40E004016
:10754000000400403C1700400012001004E5014018
:1075500000E401400000FA0510B5024908688047C0
:1075600010BD0000FC2B002002E008C8121F08C15B
:10757000002AFAD170477047002001E001C1121FB4
:10758000002AFBD1704700000146202908DA0120BB
:1075900088400A4A104008B1012070470020FCE7EB
:1075A000402909DAA1F12000012202FA00F008B115
:1075B0000120F2E70020F0E70120EEE7FC06FFBD26
:1075C00000BFEFF31081084672B6704710B504464D
:1075D00008F043FF10BD70B505460C4605B10CB967
:1075E000002070BD287840082178B0EB510F01D001
:1075F0000020F6E70622611C681CFEF76AFF08B946
:107600000120EEE70020ECE7014601F0030008B995
:10761000012070470020FCE7024650680068401EC9
:10762000084008B9012070470020FCE7024600210D
:1076300004E0505C08B101207047491C0629F8D3CA
:107640000020F9E710B50346D868884206D88818A4
:10765000401E1C69A04201D8012010BD0020FCE79B
:1076600010B504466CB10848C068A04209D8064865
:107670000069A04205D3204604F0EFFA08B10120CA
:1076800010BD0020FCE70000AC2C002070B50446C3
:107690000D4604F22740FFF7C9FF0646012D06D02C
:1076A000022D0DD0032D11D0042D19D113E0A07996
:1076B00028B194F8240010B90EB1012070BD00BFAC
:1076C000E07910B10EB10220F8E700BF207A08B1CE
:1076D0000320F3E700BF607A08B10420EEE700BFA3
:1076E0000020EBE70146481C052290FBF2F302FB69
:1076F0001300C0B27047014691F82420012A01D13D
:10770000EE2000E01F20704710B50E220021084631
:1077100001F01AFC044600BF1CB1072C01D0204622
:1077200010BD00BF0020FBE730B5ABB0AC21684610
:10773000FEF7B1FE02208DF8000000208DF8020057
:1077400006208DF803000121ADF84C101249149168
:1077500001218DF87C104FF4487122910021239172
:107760000E48299069460E4800F076FC044600BF9A
:10777000254625B100BF284600F006F900BF00BF2E
:107780000121074800F065FC6FF02702FF2101206E
:1077900077DF2BB030BD00000C2B002089E0020009
:1077A0006C2D002070B50321064800F01CFD044636
:1077B00000BF254625B100BF284600F0E5F800BF10
:1077C00000BF70BD6C2D002070B58CB004460D4616
:1077D0001646002005E0C0F10F01615C0DF80010B5
:1077E000401C1028F7D30D2104A8FEF754FE0020FA
:1077F00005E02A5CC0F10F0304A9CA54401C032809
:10780000F7D3684646DF002005E0C0F10F0208A963
:10781000895C3154401C0328F7D30CB070BD0000C4
:1078200010B504460448007800F0010010B10F20A4
:1078300001F01EFC10BD0000702B002010B50446A6
:1078400002480178204600F07DFE10BDDB2B0020B1
:1078500010B5002407E00749096811F83400012138
:1078600005F07AFF641C044800788442F3D30020BA
:1078700010BD0000102C0020142C00202DE9F8432E
:1078800006460D4617460A2F02D20720BDE8F883A8
:1078900006F092F838B906F039F8044600BF2046E1
:1078A00000B1F3E700BF1848066018480570184893
:1078B000076018480021016041608160C160164A7C
:1078C0001160516015E006EBC5081448006800908F
:1078D00098F802008DF8010098F80000104A6946F7
:1078E00005F090FF044600BF204600B1CEE700BF80
:1078F00000BF281EA5F10101CDB2E4D1094A002143
:10790000094800F057F8C1E7102C0020142C002083
:10791000182C0020283B0020202C002030230300BE
:1079200091B302008D9E02002C23030072B600BFAB
:107930001348006800F0010000B100BE00BF00BFA6
:1079400000BF00BF00BF00BFBFF34F8F00BF00BF2D
:1079500000BF0B48E438006800F4E06009490843C0
:10796000001D0749E439086000BF00BF00BFBFF336
:107970004F8F00BF00BF00BF00BF00BFFDE700008A
:10798000F0ED00E00000FA053EB50446002000904E
:107990000190029002946A46002144F20100FFF730
:1079A000C5FF3EBD10B5024802F0F7FA10BD000059
:1079B000282C002010B503460C460AB9072010BD3C
:1079C00019684A61012C01D1012000E00020086102
:1079D0000020F4E738B513480068009008235822C7
:1079E00011491248006804F0FBFE04460CB1204621
:1079F00038BD0F4A69460F4802F0D6FA04460CB16A
:107A00002046F5E701210B4802F038FB01230A4A22
:107A10001946084802F093FA0120084908702046E8
:107A2000E6E7000044230300443B00203423030026
:107A30007FFE0200282C0020FFFF7F00342C002056
:107A40002DE9F04106460D4617463446207F10B119
:107A50000020BDE8F081A76103F07CFC401941F1F2
:107A60000001C4E90201206900B12561214600201E
:107A700009F08CFDEDE770B5044625460020287717
:107A80002946012009F082FD70BD000010B50020DC
:107A9000034908700021022009F078FD10BD0000A4
:107AA000342C002010B50446204608F037FD10BDE8
:107AB00070B5044625460E488068B0B1ADB9FFF7F1
:107AC0007FFD06460A4800680A4908600848406881
:107AD0004FF0E021C1F804010020054988601EB97B
:107AE00000BF62B600BF00BF00BF00BF70BD000096
:107AF000383B002000E100E0F8B505460C4617468B
:107B00002088001DB84201D90C20F8BD684679DFF5
:107B1000064600BF304600B1F7E700BF03202188CA
:107B200068542088401C20801920218868542088AF
:107B3000401C208020884119BDF8000009F014FE87
:107B40002188084420800020DFE770B504460D46F8
:107B5000204604F047FC70BD10B50446637903F07D
:107B600003022179208804F0F5FB10BD10B504460E
:107B7000207918B9204600F007F803E02046FFF707
:107B8000EBFF00BF00BF10BD2DE9FC410646378862
:107B90004FF00008002244480178384600F0E8FC25
:107BA0007079C0F3800028B90021304606F07EFFCE
:107BB000BDE8FC8107F5807188B26B460122072180
:107BC00007F022F8054645B12946384608F0D0FEB0
:107BD0000021304606F06AFFEAE7384603F09AFED5
:107BE00004464FF6FF718C421BD1019803F0E2FD71
:107BF00004464FF6FF70844213D02146384603F006
:107C000067FE3846FFF71AFE58B9384608F044FEBA
:107C10003846FFF713FE20B90021304606F046FF34
:107C2000C6E74FF6FF70844215D107F07BF9044692
:107C30004FF6FF70844208D10421384608F098FEC0
:107C40000021304606F032FFB2E72146384603F005
:107C50003FFE4FF0010807F5807188B222460721E8
:107C600007F048F8054625B90121304606F01EFF09
:107C700017E0862D07D1384608F040FE0121304636
:107C800006F014FF0DE02946384608F071FE002189
:107C9000304606F00BFFB8F1000F02D0204603F08B
:107CA00021FE00BF84E70000D82B002070B5002221
:107CB0004FF4703107480068FFF7C2FE044600BF6A
:107CC000254625B100BF2846FFF75EFE00BF00BF76
:107CD00070BD00008C20030070B50022A42107486D
:107CE0000068FFF7ADFE044600BF254625B100BF82
:107CF0002846FFF749FE00BF00BF70BD902003007B
:107D000010B500F003F8FFF7D1FF10BD70B50F4AB2
:107D100001210F48FFF74EFE044600BF254625B15E
:107D200000BF2846FFF730FE00BF00BF094A002110
:107D30000948FFF73FFE044600BF254625B100BFB6
:107D40002846FFF721FE00BF00BF70BD49040300B5
:107D50008C200300CD750200902003001CB50C247C
:107D6000002000900346012211460190204605F0B4
:107D7000A1F800BF0C2005F0FFF81CBD70B500F0A5
:107D800015F8002240F6CD4107480068FFF758FE7D
:107D9000044600BF254625B100BF2846FFF7F4FD85
:107DA00000BF00BF70BD00000420030010B50548EF
:107DB00005F024FF0521032007F0D6FB07F04CFC5B
:107DC00010BD00001C2B002070B5054601240C20BE
:107DD00005F0D2F80948407830B9094803F0E0FFCF
:107DE00001200649887008E0FFF7BAF8012003492E
:107DF0000870002048700320887070BD3E2B002062
:107E0000442B00202DE9F04104460F46154615B9D4
:107E10000E20BDE8F0810020286000BF0CB90E20C4
:107E2000F7E700BF00BF206808B90E20F1E700BFE8
:107E300000BFE088C11700EB91718910A0EB8101B0
:107E400009B10720E5E700BF384600F001FBC6B2E4
:107E5000142E01D10520DCE72079B04201DC04209A
:107E6000D7E7E188206806FB010028600020D0E702
:107E70002DE9FC4105468846164600243788002037
:107E8000308095F82D0058B13A463146404600F012
:107E900093FB044600BF204608B1BDE8FC8100BF4B
:107EA000A87850B13A4631464046FFF725FE0446D1
:107EB00000BF204600B1F0E700BFE87860B1E97884
:107EC00048B23B463246414602F074FE044600BFCB
:107ED000204600B1E1E700BF686868B1696891F9C0
:107EE00000003B463246414609F0F2FB044600BF23
:107EF000204600B1D1E700BF288900280EDD4346A7
:107F00000622022105F10800CDE9006709F0D7FC3F
:107F1000044600BF204600B1BFE700BF288A002802
:107F20000EDD43460722032105F11000CDE900676D
:107F300009F0C5FC044600BF204600B1ADE700BF14
:107F4000288B00280EDD43461522142105F1180068
:107F5000CDE9006709F0B3FC044600BF204600B13C
:107F60009BE700BF286A58B13B4632464146286A23
:107F700001F07BFD044600BF204600B18DE700BF45
:107F8000686A58B13B4632464146686A04F008FBCD
:107F9000044600BF204600B17FE700BF95F82C00E3
:107FA00000280BDD3B4632464146284608F008FED5
:107FB000044600BF204600B16FE700BF287858B1E3
:107FC0003B4632464146284604F058FB044600BF73
:107FD000204600B161E700BF20465EE7F8B50446E1
:107FE0000E461546002000902B466A463146204634
:107FF00000F008F807460FB90020F8BDBDF80000F2
:108000002044FAE7F0B504460D4604B10AB9002051
:10801000F0BD002103E0605C401C084481B2108880
:10802000884203DC481C205C984201D0A942F2DB64
:10803000A94201DB0020EBE7881C86B2605C401E91
:1080400087B2F019A84201DD0020E1E7168038462A
:10805000DEE780F83010704770B504460D4605B174
:108060000CB90E2070BD05F1780001F03EFC08B996
:108070000720F7E70020A0702C2205F17801201DD1
:10808000FEF7F0F9002084F83000D5F8A400606312
:10809000D5F8A800A0634FF6FF70A4F8240404F5F7
:1080A0008260C4F82004002140F22C40C4F8261459
:1080B000A4F82A140155207810B9FF2084F8540040
:1080C00004F15500C4F810042046FFF714FB40F2F9
:1080D0001441085304F2144204F155012846FFF7F5
:1080E000C7FE064600BF304600B1BBE700BF04F242
:1080F00031204FF4836108512046FFF7FCFAA4F8C1
:108100001C044FF48360015904F21C4205F13C0049
:10811000FFF7AEFE064600BF304600B1A2E700BF43
:10812000012151200155208B81B2482001530120AB
:1081300084F83C000021216450200155616961648C
:1081400004F13C02002104F1540072DF064600BF36
:10815000304600B186E700BF01202070304681E73D
:1081600070B504460D462E462088102804D01128EC
:1081700007D026280FD109E02146304606F062F8E4
:108180000AE02146304606F0F2F805E02146304686
:1081900006F01DFA00E000BF00BF70BD70B50446D8
:1081A00094F8540074DF012084F82E04002084F831
:1081B00030040021502001550621204602F015FD13
:1081C000054600BF284600B170BD00BFA17820461B
:1081D00000F009F8054625B1A06B10B12846A16B47
:1081E00088470020F0E770B504460E46207808B9AD
:1081F000082070BDA670002140F22C40C4F826145F
:10820000A4F82A140155A07910B1A078012809D04A
:10821000E07910B1A078012804D0E07970B1A0789D
:1082200002280BD1606B30B1012084F82D040820A6
:10823000616B884702E0002084F82D043146204617
:10824000FFF724FAA070606BA0B1A078032802D0D9
:10825000A07804280ED1607960B194F82E0448B952
:10826000002084F83004012084F82F040720616B7B
:10827000884702E0002084F82F04182104F13C0014
:10828000FEF709F9012084F83C0004F12C0006F007
:1082900070FF20B194F82C105120015502E001210B
:1082A0005120015594F8240060B104F1280006F033
:1082B00060FF20B194F828105220015502E00121FE
:1082C00052200155002150200155A078052824D2C4
:1082D000DFE800F01F030A11180004F13C012046FA
:1082E00008F028FD054619E004F13C01204608F09D
:1082F00009FD054612E004F13C01204608F02CFD82
:1083000005460BE004F13C01204608F053FD05460C
:1083100004E0002084F8310000E000BF00BFA07836
:1083200098B104F13C0204F15400D4F8201472DF37
:1083300005460DB128465CE794F8301094F85400D7
:1083400073DF05460DB1284653E7606B18B194F80A
:108350003100616B884700204BE700002DE9F041B8
:1083600005460E46012400BF15B90E20BDE8F08178
:1083700000BF00BF0D480388324629460C4800F074
:108380000DFB0446082C0CD0132C0AD0052C08D069
:1083900000BF274627B100BF3846FFF7F5FA00BFF8
:1083A00000BF132CE6D000BFE0E70000042B002044
:1083B000E82A00202DE9F041044600BF14B90E2040
:1083C000BDE8F08100BF1C2221461C48FEF74AF898
:1083D0001B481A490860206860B120687ADF0546AA
:1083E0000DB12846ECE7164821680A680260496822
:1083F000416005E012487BDF05460DB12846DFE706
:10840000002617E006EB86000E4901EB800700BF4F
:108410004FF6FF70388000BF0B4800EB46107860C5
:108420000A4A0021381DFFF7C5FA05460DB10320A1
:10843000C6E7761C002EE5D00020C1E7EC36002010
:108440008C2B0020D8360020B8360020CD17030032
:1084500010B50446204600F0A1F808B1204610BD32
:108460001420FCE710B50446204600F097F820B130
:108470002146034804F056FA10BD0020FCE7000036
:108480001837002070B504460D461646204609F000
:10849000E7F908B9002070BD034951F824003246BD
:1084A000294602F017FCF6E72437002010B50446F1
:1084B000204600F073F820B12146034804F032FA58
:1084C00010BD0020FCE700002037002010B5044656
:1084D000204600F063F820B12146034804F022FA58
:1084E00010BD0020FCE700001C37002070B50446DA
:1084F0000025204600F052F850B12146054804F00E
:1085000011FA06460EB1022000E00120054600BF28
:10851000284670BD1437002070B50446002520465B
:1085200000F03CF850B12146054804F0FBF906463E
:108530000EB1022000E00120054600BF284670BDB4
:108540001037002070B505460C46204609F088F922
:1085500050B1284600F022F830B1044901EB840004
:10856000294604F0DFF970BD0020FCE72437002025
:1085700070B505460C461646204609F071F950B113
:10858000284600F00BF830B1034901EB8400324675
:10859000294602F000FB70BD2437002010B50446C8
:1085A000142C01DB002010BD2146024804F0BAF96A
:1085B000F9E700000C3700202DE9FC4105460C4688
:1085C000174620880930B84202D90C20BDE8FC814A
:1085D00068466DDF064600BF304600B1F6E700BFD3
:1085E0000820218868542088401C20801B20218876
:1085F00068542088401C208020882844DDF8011021
:108600000160BDF8051081802088801D20809DF8C4
:108610000000400818B900202188685402E00120B9
:10862000218868542088401C20800020CEE700006C
:10863000F8B505460F4600242888212852D006DCCC
:1086400010281ED0112809D013287DD15AE03B28CC
:108650007CD0522867D05628F7D185E04FF6FF70BE
:108660004A4908804A480068FFF705FA044600BFF7
:10867000264626B100BF3046FFF786F900BF00BF8F
:1086800081E0072000F08EFC044600BF264626B19C
:1086900000BF3046FFF778F900BF00BF00224FF45B
:1086A000A0313B480068FFF7CBF9044600BF2646DF
:1086B00026B100BF3046FFF767F900BF00BFA888AA
:1086C0003249088008460188324804F033FA0446EB
:1086D00000BF264626B100BF3046FFF755F900BF60
:1086E00000BF50E000200090A88869468FDF044654
:1086F00000BF264626B100BF3046FFF745F900BF50
:1087000000BF40E000231A468521204800887FDF13
:10871000044600BF264626B100BF3046FFF734F9B5
:1087200000BF00BF00BF00231A4619461748008843
:10873000B1DF044600BF264626B100BF3046FFF732
:1087400023F900BF00BF1EE01CE0FFE7A88813214B
:1087500076DF044600BF264626B100BF3046FFF74D
:1087600013F900BF00BF0EE0A888132176DF04468E
:1087700000BF264626B100BF3046FFF705F900BF0F
:1087800000BF00E000BF00BFF8BD0000042B0020C8
:1087900008200300602D002070B505460E4628888D
:1087A000102802D011282CD115E01748006860B9B4
:1087B00001F03EFA044600BF34B11448006818B115
:1087C000204612490968884700BF0F480068401CCE
:1087D0000D49086016E00C480068401E0A49086010
:1087E0000846006860B9FEF78FFF044600BF34B149
:1087F0000648006818B1204604490968884700BF48
:1088000000E000BF00BF70BD882B0020842B00203B
:1088100070B504460D462088102806D0112808D0CF
:1088200012280ED0502810D107E0204605F098FC01
:108830000CE0204605F082FD08E0204605F0F8FE39
:1088400004E0204605F074FC00E000BF00BF70BDEE
:108850002DE9F04104460F46A6882088102806D04E
:10886000112817D019283DD01A2848D116E007F052
:10887000B3FA304607F034F920B900BF0420FFF7FF
:1088800083F806E0E07B012803D031461D4804F060
:1088900058F834E0304607F0C3FA30E0207A050992
:1088A000042D01DB012000E000200246314615487E
:1088B0000C3002F070F9032D01DB012000E00020F4
:1088C000024631460F48083002F065F9022D01DBFF
:1088D000012000E00020024631460A48001D02F057
:1088E0005AF90CE0207A48B9607AC0F3C0052A46EC
:1088F000314604480C3002F04EF900BF00BF00BF03
:10890000BDE8F0811437002070B504460D4600BF65
:108910000748007800B970BD00BF204602F0B4FEE1
:10892000204608F0FBFA204602F002FC00BFF2E706
:10893000C82B002070B50446204608F00FFF0546FE
:1089400005F0010070BD38B504F080FD044600BF9D
:10895000254625B100BF2846FFF716F800BF00BF27
:10896000002000906946012004F092FC044600BFFC
:10897000254625B100BF2846FFF706F800BF00BF17
:10898000684604F0E5FC044600BF254625B100BF5B
:108990002846FEF7F9FF00BF00BF38BD2DE9F041C2
:1089A00086B00446884617461D4600BF1CB90E20F7
:1089B00006B0BDE8F08100BF01AA29466069FFF753
:1089C00021FA064600BF304600B1F1E700BF4FF67E
:1089D000FF70854201D0019808B90520E8E70198A9
:1089E000007808B90820E3E73888F42801DD07207B
:1089F000DEE700200290039004900590A088ADF877
:108A00000800CDF81480049701208DF80A0002A90F
:108A10002846AEDFCCE7000070B58EB004460E46A7
:108A20003F4B0FCB09AD0FC500BF14B90E200EB0E0
:108A300070BD00BF00BF0EB90E20F8E700BF306860
:108A4000A061214609A862DF054600BF284600B1A3
:108A5000EDE700BF20788DF836000A20ADF834002D
:108A6000A21C0DA90120A8DF054600BF284600B1C1
:108A7000DDE700BF202101A8FDF70DFD0C20ADF8BA
:108A8000040020788DF80600F420ADF808000120DD
:108A9000ADF80A008DF810009DF8110020F00800D4
:108AA00008308DF811009DF8110020F00400001D21
:108AB0008DF8110001208DF815008DF816006088E2
:108AC00004F10C0201A900F0BDFD05460DB12846D8
:108AD000ADE7202101A8FDF7DEFC0B20ADF8040076
:108AE00020788DF80600F420ADF808000120ADF8DC
:108AF0000A008DF810009DF8110020F010001030D1
:108B00008DF8110001208DF815008DF816008DF8F4
:108B100017006088221D01A900F094FD87E700007E
:108B20002C22030070B504460D4605B104B970BD92
:108B30002E462088102804D0502807D057280FD15F
:108B400009E02146304605F043FB0AE02146304665
:108B500005F09AFD05E02146304605F093FC00E063
:108B600000BF00BF00BFE2E770B52A4801F0DAFF9E
:108B700001202949087101F0D1FE044600BF2546B5
:108B800025B100BF2846FEF7FFFE00BF00BF08F07A
:108B900029FF22480021016041600346204A41F23A
:108BA0000101481E01F054FF044694B101201A4906
:108BB00008711C491A4801F0ABFF044600BF254666
:108BC00025B100BF2846FEF7DFFE00BF00BF08F05A
:108BD00009FF12480021016041600346104A41F23A
:108BE0000201881E01F034FF044694B101200A49B5
:108BF00008710D490A4801F08BFF044600BF254665
:108C000025B100BF2846FEF7BFFE00BF00BF08F039
:108C1000E9FE70BD85A80200542B00205C2B0020CB
:108C2000DC350020742003008020030010B50146CD
:108C3000094B585C00BF4FF0A044234600BFD3F857
:108C40001045C44004F001040CB1012000E00020F4
:108C50000246104610BD0000B02003007CB5002481
:108C60000DE00848055D03260020009033460246CB
:108C700001460190284604F031F900BF641C042C21
:108C8000EFD37CBDB020030010B5044604F0010012
:108C900008B100F04BF804F0020008B1FFF7DEFF66
:108CA00010BD000010B502460949885C00BF4FF0B6
:108CB000A0442146D1F80435012484409C43C1F8E6
:108CC0000845012484401C40C1F80C4500BF10BD7C
:108CD000AC20030010B504460249085D012104F0F0
:108CE0006EF910BDAC20030010B504460249085DC2
:108CF000002104F064F910BDAC20030010B501465A
:108D0000094B585C00BF4FF0A044234600BFD3F886
:108D10000445C44004F001040CB1012000E000202F
:108D2000024682F0010010BDAC2003007CB5002497
:108D30000CE00948055D0020009003460122114621
:108D40000190284604F0CAF800BF641C042CF0D33C
:108D500000F004F87CBD0000AC20030010B5002436
:108D600003E02046FFF7C0FF641C022CF9D3022465
:108D700003E02046FFF7AEFF641C042CF9D310BDBE
:108D800010B5002403E02046FFF7A4FF641C022C6A
:108D9000F9D3022403E02046FFF7A6FF641C042C4D
:108DA000F9D310BD02464FF0FF30002106E0054B1D
:108DB0005B5C934201D1084602E0491C0429F6D3CA
:108DC00000BF7047B020030070B505460C46002672
:108DD0000348056014B1204608F0BFFA304670BD64
:108DE000842B0020002070472DE9F04106460F46F5
:108DF0004FF0000800243046FFF7D4FF0446042C4F
:108E00003ED20FB3012F02D0022F38D130E004EB55
:108E10004400214911F8008004EB440008444078E4
:108E200050B11E4A4FF480411D480068FEF708FE0D
:108E300005460DB91948067004EB4400164908446C
:108E40008078184908551AE015480068FEF713FEA7
:108E50001448005D04EB44010F4A114489788842AC
:108E600005D104EB44001146084490F8028006E066
:108E700004EB44000849084490F8018000BF00BF9B
:108E8000B8F1000F06D00848006818B140460649FE
:108E900009688847BDE8F081883600207C2B0020D7
:108EA000BC2003007D2B0020782B002010B5044649
:108EB000042C03D22046FFF7B9FE10BD0020FCE7CA
:108EC00070B50546042D10D0072D1FD00A2D02D0F5
:108ED0000E2D31D100E030E0194800884FF6FF71C7
:108EE000884201D1FEF74AFF27E013211448008889
:108EF00076DF0446082C08D000BF264626B100BF06
:108F00003046FEF741FD00BF00BF16E00C48008868
:108F10004FF6FF7188420ED10A48FFF73FF9044629
:108F2000082C08D000BF264626B100BF3046FEF709
:108F30002BFD00BF00BF00E000BF00BF70BD000000
:108F4000042B00206C2D002030B503460020042B9C
:108F500023D2012A07D1012903D103F10E04E4B27F
:108F600000E00024224679B1012902D0022911D162
:108F700004E003EB43040A4D2A550DE003EB4304E0
:108F8000074D2C44627007E003EB4304044D2C446E
:108F9000A27001E0072000BF00E0072030BD000004
:108FA0008836002070B5044600250548007800F09A
:108FB000010018B1204600F05BF80546284670BD58
:108FC000702B00202DE9F04105460F4600241F4874
:108FD00005601F48076005F00200F8B1002606E0B2
:108FE000012211463046FFF7AFFF0446761C0EB94A
:108FF000002CF5D034B940F2333204211548FEF785
:109000003DFC044614B9FEF723FC04462CB9124A71
:1090100000211248FEF7CEFC044600BF05F0010017
:1090200080B10120FFF730FE2CB90D4A00210D4818
:10903000FEF7C0FC04462CB90B4A01210B48FEF791
:10904000B9FC04462046BDE8F0810000702B0020EA
:10905000782B0020C0200300AD940200BC20030048
:109060006DBD0200B420030021780200B820030087
:109070002DE9F047044600260025F948007820B184
:109080000020F749087002F05DFE182C7ED2DFE860
:1090900004F00C191A4D82B6FAF8F7F6F5F4F3F26B
:1090A000F1F0EFEEEDECEBEAE9E802F04BFE022026
:1090B000FFF710FEEB480068FEF7DDFC0646EA48C5
:1090C0000470D8E100BF0220FFF718FE58B102205B
:1090D000FFF700FE022C02D14FF4E16001E04FF4F3
:1090E0007A60054609E00220FFF7FEFD022C01D15F
:1090F000C82001E04FF4C8700546DB4804704FF407
:109100000040A5FB00104FF47A73CF1840F1000126
:109110005A0000233846FDF765F98146002249468A
:10912000D0480068FEF78CFC0646A4E10220FFF759
:10913000E5FD58B10220FFF7CDFD032C02D14FF41D
:10914000487001E04FF47A60054609E00220FFF71D
:10915000CBFD032C01D1C82001E04FF4C8700546B7
:10916000C14804704FF40040A5FB00204FF47A730F
:10917000D71840F100015A0000233846FDF732F9B4
:10918000814600224946B748006800E072E1FEF7D8
:1091900057FC06466FE10220FFF7B0FD58B10220F0
:1091A000FFF798FD042C02D14FF47A6001E04FF4F0
:1091B0007A6005460AE00220FFF796FD042C02D1F2
:1091C0004FF4C87001E04FF4C8700546A64804701B
:1091D0004FF40040A5FB00204FF47A73D71840F1FC
:1091E00000015A0000233846FDF7FCF881460022B2
:1091F00049469C480068FEF723FC06463BE10220F6
:10920000FFF77CFD50B10220FFF764FD052C01D172
:10921000C82001E04FF47A60054609E00220FFF71C
:1092200063FD052C01D1C82001E04FF4C87005464C
:109230008D4804704FF40040A5FB00104FF47A7283
:109240008F1840F10001520000233846FDF7CAF89C
:1092500081460022494683480068FEF7F1FB064636
:1092600009E1F8E0F6E0EAE0E1E0D8E0D2E09FE0F2
:109270009DE091E08AE057E051E042E033E024E0F5
:1092800015E00EE0FFE70020FFF70CFD76480470C4
:10929000002240F2666173480068FEF7D1FB064683
:1092A000E9E00220FFF720FD6F480470E3E00120B1
:1092B0006B490870FFF7F6FC002240F266616948CE
:1092C0000068FEF7BDFB0646D5E001206449087042
:1092D000FFF7E8FC00224FF4005162480068FEF7F7
:1092E000AFFB0646C7E001205D490870FFF7DAFCD6
:1092F000002240F266615B480068FEF7A1FB06466B
:10930000B9E0012056490870FFF7CCFC00224FF469
:10931000005154480068FEF793FB0646ABE0FFF7A8
:109320002FFD51480470A6E00320FFF7E7FC50B181
:109330000320FFF7CFFC0D2C01D1C82001E04FF432
:109340004870054609E00320FFF7CEFC0D2C02D142
:109350004FF4487000E0C8200546434804704FF4BD
:109360000040A5FB00204FF47A73D71840F10001AC
:109370005A0000233846FDF735F881460022494659
:109380003A480068FEF75CFB064674E00320FFF7EE
:10939000ABFC354804706EE00320FFF79BFC3348BC
:1093A0000068FEF768FB06462F48047063E000BFC4
:1093B0002E480068FEF75FFB0646C4F1110515B3A1
:1093C0000EBB012D18D9A8B2C82148434FF4004163
:1093D00080FB01104FF47A73CF1840F100015A005E
:1093E00000233846FCF7FEFF8146002249461F480D
:1093F0000068FEF725FB06460220FFF775FC0120FA
:109400001B49087005E00220FFF764FC00201849A2
:10941000087030E002F096FC134804702BE002F074
:1094200091FC0020FFF760FC0F48047023E002F07D
:1094300089FC0120FFF758FC0B4804701BE002F088
:1094400081FC0020FFF750FC0120FFF74DFC06488F
:10945000047010E000BFFFF793FC034804700AE0BB
:109460006D2B0020B42003006C2B0020B8200300DB
:10947000742B002000BF00BF3046BDE8F08700001D
:109480000246002108E0074B1B6803EBC10003788C
:10949000934200D17047491C034800788142F2DBB7
:1094A0000020F7E7102C0020142C002010B50446F3
:1094B00020780221FFF798FC10BD000038B50E4956
:1094C0000320FFF77FFD044600BF254625B100BFFE
:1094D0002846FEF759FA00BF00BF69460020FFF793
:1094E00073FC044600BF254625B100BF2846FEF7A1
:1094F0004BFA00BF00BF38BDC18E02007CB50446E8
:10950000204602F007FA054600236A46092105F0C5
:109510006FFC052805D10122024801782046FFF79B
:1095200027F87CBDA42B00207CB504460E46002005
:10953000019042F6A620ADF8040001208DF8060047
:109540000748006800906A4601A92046A0DF05464A
:109550002DB90122034801782046FFF709F87CBDA8
:109560003C210300A52B002001468879012809D160
:109570000879012806D1488842F60212904201D1AA
:10958000012070470020FCE74FF0FF31054A42F808
:109590002010082804DBFF23A0F1080150325354A7
:1095A000704700007C3A00200146024850F8210034
:1095B000704700007C3A00202DE9F04F03460C462E
:1095C0004FF0FF390AB1002000E0082084460AB1BC
:1095D000082000E00C208046614624E0154850F841
:1095E0002100401CF0B91D460846274616464FFA92
:1095F00080FBDFF840A00AF1300A0AF805B0DFF876
:1096000034A04AF820704EB94FFA85FBA0F1080A41
:10961000DFF820E00EF1500E0EF80AB000BF4FFA4E
:1096200081F902E0491C4145D8D300BF4846BDE856
:10963000F08F00007C3A00200146014840567047F8
:10964000AC3A002070B590B006460C461546A0789E
:1096500018B901208DF80E0002E0A0788DF80E00F8
:109660002088ADF80C0000200290607C02A907F071
:10967000CFFBA07C0DF1090107F0CAFBE07B08B12C
:10968000012000E000209DF80A1060F3C3018DF86E
:109690000A10207C08B1012000E000209DF80A108B
:1096A00060F304118DF80A10207B08B1012000E05E
:1096B00000209DF80A1060F300018DF80A10207D4B
:1096C00008B1022000E001209DF80A1060F3420179
:1096D0008DF80A101C2109A8FCF7DDFE607BC0F3A1
:1096E000001018B9607BC0F34010F8B10020009062
:1096F000E07C0DF1010107F08BFB00BF9DF800003D
:1097000020F00F00401C8DF800009DF8000020F0B4
:10971000F00010308DF8000000BF9DF8020020F02E
:109720000600801C8DF80200CDF838D0607B8DF8E3
:109730002400A07B8DF82500142104A8FCF7ABFEC3
:1097400003A8049002A80590A088ADF81C00A068AA
:1097500020B1E088ADF81800A0680890A069002842
:1097600049D000200190A0690088ADF82C00A069C4
:109770004088ADF82E00A06940680A9001A80D90BD
:10978000A169087B01A907F043FBA169487B0DF1A2
:10979000050107F03DFBA069807A08B1012000E0D7
:1097A00000209DF8061060F3C3018DF80610A06933
:1097B000C07A08B1012000E000209DF8061060F397
:1097C00004118DF80610A069007A08B1012000E0AC
:1097D00000209DF8061060F300018DF80610A069C6
:1097E000807B08B1022000E001209DF8061060F3A4
:1097F00042018DF80610E06908B1E0690C902B4633
:1098000004AA09A93046AADF10B070BD10B5002126
:109810000D2003F08BFB03210E2003F087FB10BD0E
:109820002DE9F04104460D464FF6FF76304684425E
:109830000AD14FF48071284603F044F886B2B6F599
:10984000807F10D126460EE0FF2C0CDC21462846F6
:1098500003F021F880F001070FB1204601E04FF638
:10986000FF70064600BF3046BDE8F08170B5054682
:109870000DB9094C01E0084C083409E0204602F01B
:10988000F4F9064606B904E028467168884700BF27
:10989000F4E700BF70BD0000703A002010B5044628
:1098A0002CB90120064948700020FFF7DFFF012C8A
:1098B00004D1012002498870FFF7D8FF10BD0000D5
:1098C000683A00202DE9F047024613468C46D3E95A
:1098D0000245DCE90267B6EB040877EB050002D32A
:1098E0000120BDE8F0870020FBE7014688780128C9
:1098F00005D191F82000012801D100207047886A25
:10990000042802D0486A042801D10020F6E701208B
:10991000F4E72DE9FC4F03460C46002047E0225CAB
:10992000FF2A3ED0C2F3C01922F080014DF820106A
:10993000B9F1000F0DD05DF8201000BF4FF0A04529
:109940002E46012707FA01F5C6F8085500BF00BFEB
:109950000DE05DF8201000BF4FF0A0452E46012716
:1099600007FA01F5C6F80C5500BF00BF00BF5DF84F
:10997000201001252E460027BC46B84600BF4FF0F8
:10998000A04BDA4645EA460B4BEA870B4BEA0C2B19
:109990004BEA084E0AF5E06B4BF821E000BF00BF30
:1099A00003E04FF0FF314DF82010411CC8B20228EF
:1099B000B5DB6D461A68002107E055F8217002F505
:1099C000AC6646F821704E1CF1B20229F5DB00BFEF
:1099D000BDE8FC8F33B58BB00546002000900C9895
:1099E00078B100240BE021460CA802F09BFF28B1BF
:1099F000009A501C009001A820F81240641C142CFE
:109A0000F1D32C2269462846FCF72CFD0DB030BD61
:109A100001460888062808DB0888B0F5486F06DD8F
:109A200008884FF6FF72904201D00720704748889F
:109A3000062808DB4888B0F5486F06DD48884FF6F1
:109A4000FF72904201D00720F0E708884FF6FF72BE
:109A5000904208D04888904205D008884A889042B1
:109A600001DD0720E2E70020E0E72DE9F0410746AD
:109A70000D46144698462088801D404502D90C208A
:109A8000BDE8F0813846FFF7C3FF064600BF304609
:109A900000B1F5E700BF0520218868542088401CEC
:109AA00020801220218868542088401C2080228831
:109AB0005119388807F058FE2188084420802288F0
:109AC0005119788807F050FE218808442080002032
:109AD000D6E710B5044600BF2046FDF755FF00BF8E
:109AE00010BD000030B587B01C216846FCF7D3FCE0
:109AF000002000904FF4A03001904FF4F02002902D
:109B000003208DF80C000020ADF80E008DF8100039
:109B100009480590094806906846FEF74BFC044644
:109B200000BF254625B100BF2846FDF72DFF00BF29
:109B300000BF07B030BD000005E10200D39A02006B
:109B4000F8B505460C46607A88B9207A10B91048F5
:109B5000476801E00E4887682A4639466068FDF785
:109B60006FFF064616B1304606F0A8FE0EE0002054
:109B700020720748406948B101208DF80000ADF817
:109B80000250034841696846884700BFF8BD00009D
:109B9000EC360020F0B585B004460D4617461E464B
:109BA00014220B496846FCF75DFCADF802408DF8C5
:109BB0000850ADF80A708DF80C6000220548017855
:109BC0002046FEF7D5FC684600F038FE05B0F0BD33
:109BD000EC210300D82B002010B586B00446208865
:109BE00004F030FF00BB2088FEF73CFC30B9208831
:109BF000012241F2060100F0E2FA15E0208800227D
:109C00000A490978FEF7B4FC02208DF80400208888
:109C1000ADF8060000208DF80C0000218DF80D1025
:109C200001A800F00BFE00BF06B010BDD82B00202D
:109C300010B5042202210020FFF786F9044600BF78
:109C40001CB1072C01D0204610BD00BF0020FBE74F
:109C500030B503460C4612B94FF6FF7100E011888B
:109C60000846002110E0051245EA0025A8B25D5C17
:109C70006840C0F30315684080EA0035A8B20506C5
:109C80002D0D80EA4500491CA142ECD330BD7FB5C3
:109C900006460C46002002900390ADF80840ADF84F
:109CA0000A40009001906A4602A9304690DF0546BE
:109CB00005B100BF284604B070BD00002DE9F04199
:109CC00004460F46164698463D78207830B1012864
:109CD00012D0022834D0042877D14FE060780128D0
:109CE00009D1032D07DD05F01FFE4346324606214C
:109CF0003848FDF771F969E0607806281FD1062D14
:109D00001DDD35480078D0B9E078344908702079F5
:109D1000487060798870A0790871E07948710020F6
:109D20002F49087008F0F4F84346324601212C48C8
:109D3000FDF76BF907F052FB284802F031F845E0D7
:109D40006078012819D1022D17DD00202449087000
:109D50002248007848702148407888701F488078F1
:109D6000C8701E48007908711C4840794871434604
:109D7000324606211A48FDF755F927E06078012898
:109D800021D115480078F0B9A078012805D11348F1
:109D900002F006F8022013498870A07840B9FDF758
:109DA000DFF801200F4908700020487003208870F8
:109DB00000200B490870424631460948FDF76AF910
:109DC00001200949087001E0FFE700BF00BFBDE8BE
:109DD000F08100004D2B00203C2B0020442B002064
:109DE000943400203E2B00203A2B00202DE9F04136
:109DF00005460F460F4C0121204602F0E4FD0646C1
:109E000000BF00BF00BF00BFBFF35F8F00BF00BF38
:109E100000BF0EB9012000E0002040B1284602F04A
:109E20002DFB08B1BDE8F081024803F01FF900BF27
:109E3000F8E700009C2B002070B506460D4616B1D1
:109E40004FF4064070BD287920B1012809D00228BE
:109E500015D111E002202871284605F09FFE044626
:109E600010E0284600F078FE044648F2096084427B
:109E700001D141F61D5405E041F61D5402E048F2BF
:109E80000E6400BF00BF2046DCE700002DE9F04172
:109E90008046002414E01248006800EBC4052878CE
:109EA00003F02AFD07466878012800D100E0002071
:109EB000784080F001062878314600F0EDFB641C04
:109EC000084800788442E6DB0748D0E90010002308
:109ED00059405840014301D007F078FBBDE8F081BC
:109EE000102C0020142C0020202C002070B50446DB
:109EF00020793D2802D141F23D0001E04FF4885025
:109F0000054620880022294602F024FA70BD70B56B
:109F100005460C464FF4803000FA04F1284600F064
:109F20009BFB70BD70B505460C464FF4A07000EB6E
:109F3000840086B23146284600F026FC70BD2DE92B
:109F4000F04704460D4616461F464FF4803000FA8F
:109F500005F84FF4A07000EB85001FFA80F926F099
:109F60007F464146206803F037F94146206803F0F8
:109F70002DF94946206803F022F932462946206827
:109F800003F014F94146206803F023F91FB141465C
:109F9000206803F024F9BDE8F08710B50446206876
:109FA00003F009F910BD00002DE9F04303460C460B
:109FB00016465879254941F820605879244901EB23
:109FC000C000007918B108221046BDE8F08321884E
:109FD0001868C0F8081500BF93F90450A778284600
:109FE000394600280CDA4FEA417C4FEA1C69DFF859
:109FF00064C000F00F08A8F104080CF8089007E00E
:10A000004FEA417C4FEA1C68DFF84CC00CF8008036
:10A0100000BF00BF93F9040000BF00F01F0501213D
:10A02000A9404509AD0005F1E025C5F8001100BFC4
:10A0300000BF01205979064D05EBC101087158791F
:10A04000294641F8303000221046BEE74C2C002053
:10A05000502C002018ED00E000E400E010B50146AF
:10A0600091F9040000F01F0301229A40024B4409B9
:10A0700043F8242000BF10BD00E200E070B50546A3
:10A080000C4622460221284600F0F2FA70BD10B5B7
:10A0900004464FF48271204600F076FB10BD10B5E7
:10A0A00004460021206803F09DF810BD10B5044659
:10A0B0000421206803F096F810BD2DE9F84F0446FE
:10A0C0000D46164699464FF4803000FA05FB4FF4D2
:10A0D000A07000EB850080B2009026F07F465946C4
:10A0E000204600F0B9FA206803F065F807462068BA
:10A0F00000F5A86151F825108A463A46294620689D
:10A1000003F054F82068009903F059F83946504696
:10A1100007F0B6F9012806D1102003F0DFFA206815
:10A12000009903F04CF8206803F045F807463946DB
:10A13000304607F0A5F980465946206803F049F8F3
:10A14000B8F1010F0FD1721C2946206803F02EF8D8
:10A15000102003F0C3FA206803F02DF8B84227D08E
:10A160000D20BDE8F88F32462946206803F01EF81E
:10A17000206803F020F80746701E394607F080F982
:10A1800080466FF07F40A0EB0900404501D20D20D2
:10A19000E7E7B8F1000F0BD1721C2946206803F0E5
:10A1A00005F8206803F007F8B84201D00D20D8E781
:10A1B00001225946204600F05BFA0020D1E770B535
:10A1C00006460C4615462B46224600213046FFF730
:10A1D000E1FC70BD2DE9F84305460E46174698464A
:10A1E00069461048006802F00FFB044614B90420C9
:10A1F000BDE8F8831C212046FCF74DF901202071B1
:10A200002560C4F8088008480068B6FBF0F0E060FC
:10A21000676169460348006802F020FB05F03CFBDB
:10A220000020E5E7882303007C23030010B50446E3
:10A23000D4E90321501828DF10BD0000134800782E
:10A24000062820D11148001D007800F00F00D0B979
:10A250000E480830007800F0F000302801D10120CD
:10A2600070470A480830007800F0F000402801D11B
:10A270000120F5E705480830007800F0F00050288C
:10A2800001D10120ECE70020EAE70000E00F00F038
:10A2900013480078062820D11148001D007800F0EE
:10A2A0000F00D0B90E480830007800F0F0003028D8
:10A2B00001D1012070470A480830007800F0F00012
:10A2C000402801D10120F5E705480830007800F06A
:10A2D000F000502801D10120ECE70020EAE700005F
:10A2E000E00F00F013480078062820D11148001D27
:10A2F000007800F00F00D0B90E480830007800F068
:10A30000F000302801D1012070470A480830007859
:10A3100000F0F000402801D10120F5E705480830A1
:10A32000007800F0F000502801D10120ECE7002077
:10A33000EAE70000E00F00F00A48007806280ED196
:10A340000848001D007800F00F0040B905480830AB
:10A35000007800F0F000302801D101207047002083
:10A36000FCE70000E00F00F006480068062806D170
:10A370000448001D0068062801D101207047002014
:10A38000FCE700003001001013480078062820D1B7
:10A390001148001D007800F00F00D0B90E480830B9
:10A3A000007800F0F000302801D1012070470A4801
:10A3B0000830007800F0F000402801D10120F5E7D6
:10A3C00005480830007800F0F000502801D1012045
:10A3D000ECE70020EAE70000E00F00F00A48007810
:10A3E00006280ED10848001D007800F00F0040B983
:10A3F00005480830007800F0F000302801D1012035
:10A4000070470020FCE70000E00F00F013480078E0
:10A41000062820D11148001D007800F00F00D0B9A7
:10A420000E480830007800F0F000302801D10120FB
:10A4300070470A480830007800F0F000402801D149
:10A440000120F5E705480830007800F0F0005028BA
:10A4500001D10120ECE70020EAE70000E00F00F066
:10A460000A48007806280ED10848001D007800F040
:10A470000F0040B905480830007800F0F00030289F
:10A4800001D1012070470020FCE70000E00F00F040
:10A490000A48007806280ED10848001D007800F010
:10A4A0000F0040B905480830007800F0F00030286F
:10A4B00001D1012070470020FCE70000E00F00F010
:10A4C0000A48007806280ED10848001D007800F0E0
:10A4D0000F0040B905480830007800F0F00050281F
:10A4E00001D1012070470020FCE70000E00F00F0E0
:10A4F0000278072A38D2DFE802F037040712222B4D
:10A50000340000220A7030E001220A7003898B8136
:10A510008388CB81C2688A6000230B7425E0022205
:10A520000A7003898B818388CB81C2688A60827DAF
:10A53000062A01D1012300E000230B7415E0032259
:10A540000A70C3888B810389CB81C2688A600CE062
:10A5500004220A70C3888B810023CB8100228A6089
:10A5600003E005220A7000E000BF00BF7047000052
:10A5700030B587B004460D462068806808B907B03A
:10A5800030BD182101A8FBF786FF0295A068069050
:10A59000207910B1012815D109E001208DF80400BF
:10A5A00020690390E0680490606905900BE0022048
:10A5B0008DF804000749E068096848430390606922
:10A5C000059000E000BF00BF2068816801A88847AF
:10A5D00000BFD4E77C23030070B50546002409E0E2
:10A5E000064850F8240020B1044850F824102846AA
:10A5F0008847641C042CF3D370BD0000683C002025
:10A6000070B586B006460C4615461CB3112C21D0F9
:10A61000082C1FD00D2C19D13246032101A802F0BD
:10A62000A1F82DB1287800F0010008B1012000E068
:10A6300002208DF80C0000218DF8101041F201115C
:10A64000ADF80E1001A800F00DF903E021463046E8
:10A6500006F0A2F906B070BD70B504460D46294655
:10A66000206802F0B3FD2946206802F0B5FD70BDF8
:10A6700070B504460E4615463146206802F0A9FD25
:10A680001DB13146206802F0AAFD70BD10B5044628
:10A69000204600F0E7F810BDF8B505460C46284600
:10A6A00006F068FE05286AD2DFE800F003212A39A7
:10A6B0003F00DCB10121284606F06CFE002000902E
:10A6C0006846FDF7EFF92A4601260027304639464D
:10A6D000FBF7B9FE2B4AD2E9003218431143294A4D
:10A6E00003C29DF80000FDF7E3F900BF47E00CB19D
:10A6F000022000E000200146284606F04BFE3EE026
:10A7000044B10321284606F045FE0121284607F002
:10A71000C7F803E00121284606F03CFE2FE01CB9F3
:10A720000421284606F036FE29E024B103212846FC
:10A7300006F030FE22E00021284606F02BFE002124
:10A74000284607F0ADF8002000906846FDF7AAF90A
:10A750002A460126002730463946FBF774FE0A4692
:10A76000C143D043074B0CCB11401840054AC2E906
:10A7700000109DF80000FDF79BF900BF00BF00BF6F
:10A78000F8BD0000202C002070B505460C46286856
:10A79000015929B12146286802F011FD012070BD40
:10A7A0000020FCE770B50446608801F0B3F8A08093
:10A7B000002505E0044850F82510204688476D1C08
:10A7C000002DF7D070BD0000942B002070B504461A
:10A7D000A08800F0CFFF6080002505E0044850F815
:10A7E0002510204688476D1C002DF7D070BD000055
:10A7F000A82B002070B50546002405E0044850F859
:10A80000241028468847641C022CF7D370BD000032
:10A810007C21030070B50546002405E0054850F88A
:10A82000241028468847641C034800788442F5DBDE
:10A8300070BD00001C3A0020D62B002070B50446E5
:10A84000608801F067F8A080002505E0044850F812
:10A850002510204688476D1C002DF7D070BD0000E4
:10A86000AC21030070B50546002405E0044850F80B
:10A87000241028468847641C002CF7D070BD0000C7
:10A8800024220300017831B101290AD002290ED017
:10A89000052918D111E0416811B900210B4A117145
:10A8A00012E0416811B90021084A11710CE04168B9
:10A8B00011B90021054A117106E0416811B9002162
:10A8C000024A117100E000BF00BF7047542B002006
:10A8D00038B505461048007810B948F2016038BD17
:10A8E0004FF6FF70854202D148F20360F7E76846F1
:10A8F00004F0BEFE044614B948F20760EFE70520F5
:10A90000207001202071E580684604F0C1FE04F04B
:10A91000D1FF0020E3E700006C2C002070B586B06A
:10A92000142101A8FBF7B7FD2E48007828B101A833
:10A93000FFF752FE002006B070BD2A48001D02F04D
:10A940000FF808B10020F6E700F0B6F906460EB1A0
:10A950003046F0E704F0C8FE03F0BCFF054625B121
:10A96000022D03D0062D0ED103E000BF48F20A608D
:10A97000E1E701201B4908700020486001A8FFF7AB
:10A980002BFE0020D7E700BF00BF684604F070FE32
:10A99000044614B948F20760CDE7012020700C2D61
:10A9A00016D2DFE805F01506150715111512150A60
:10A9B0000E0B00BF002020710BE000BF03202071B0
:10A9C00007E00220207104E000BF0120207100E0B8
:10A9D00000BF00BF684604F05BFE04F06BFF002080
:10A9E000A9E700006C2C002038B5044614B948F2E1
:10A9F000046038BD6946204605F0EEF808B3BDF89E
:10AA0000000000EB8000114901EB8000C068A8B194
:10AA1000A07A98B1BDF8000000EB800001EB800047
:10AA2000C068401EBDF8001001EB8101074A02EB2F
:10AA30008101C8600020A072002504E048F205658D
:10AA400001E048F209652846D3E70000143D0020E4
:10AA50007FB514461D462B46224601A9684605F0DF
:10AA600053F804B070BD37B50C4615462B46224648
:10AA70006946002005F048F83EBD37B50C4615463E
:10AA80002B4622460021684605F03EF83EBD0246B0
:10AA900002B111B948F204607047106808600020E4
:10AAA000FAE70000F8B504460D4604B115B948F2BE
:10AAB0000460F8BD6946204605F08EF8A0B16668CE
:10AAC000BDF8001001EB8101094A02EB810101F19F
:10AAD0000C00012101F04BFF2E6060680C306860B3
:10AAE0000120A0720020E4E748F20960E1E70000DD
:10AAF000143D002070B504460D4614B948F20460B8
:10AB000070BD032300222946204607F0FDF8F7E731
:10AB100070B504460D46022300222946204607F060
:10AB2000F3F870BD70B5054609480068042802D1E5
:10AB300048F20B6409E007480549096840F82150CC
:10AB40000121034801F013FF0024204670BD0000DE
:10AB5000782C0020683C00203EB504460A4B6A462B
:10AB60000021A01D04F0D0FF054635B9064A9188A2
:10AB7000019805F0ABF8054603E0034800210160A9
:10AB8000416028463EBD0000882C00200146A1F50A
:10AB9000404080B2704770B505460E46144624B159
:10ABA0003146284601F0CDFE03E03146284601F04B
:10ABB00063FE70BD30B504461088C01C984201D9B0
:10ABC0000C2030BD0220158848551088401C10808C
:10ABD0000120158848551088401C108015884C5558
:10ABE0001088401C10800020EBE770B504460D462D
:10ABF00040F21442115B0122D4F81004FDF7EEF983
:10AC0000064606B1357004F13C0204F5826104F198
:10AC1000540072DF70BD00002DE9F04106460C467D
:10AC200015460027112C01D1012700E0002765B14E
:10AC30003A460A4801783046FDF79AFC0022084857
:10AC400001783046FDF794FC05E03A460448017867
:10AC50003046FDF78DFCBDE8F0810000F32B0020AD
:10AC6000F02B002010B54FF4405400F009F80349D0
:10AC7000086108460069001BC86010BDAC2C0020AC
:10AC800010B540F6F8700068401C18B94FF010205D
:10AC9000406902E040F6F870006803464FF08050CB
:10ACA00001694269581C08B1184601E002FB01F035
:10ACB0000446204610BD000010B5FFF7D3FF002268
:10ACC0000249034802F028F810BD00008C2303005D
:10ACD000AC2C0020F7B50D4617460DB90020FEBD7F
:10ACE0000026009868B1002409E02146684601F07A
:10ACF00019FE18B1A0B23946A847761C641C142C62
:10AD0000F3D33046EBE710B50446606804F062FD0B
:10AD100010BD0000FEB500BF9DF8000020F00F0040
:10AD2000401C00909DF8000020F0F00010300090D2
:10AD300000BF0A2001F0FEFB06461BA13046FBF7D0
:10AD4000D5FB1BA13046FBF7B1FB3046FBF7BAFB46
:10AD500085B22A46314668467CDF044600BF254658
:10AD600025B100BF2846FCF70FFE00BF00BF002042
:10AD7000019002905020ADF80400A020ADF806002C
:10AD80000020ADF808004FF4C870ADF80A0001A823
:10AD90007ADF044600BF254625B100BF2846FCF7F0
:10ADA000F3FD00BF00BFFEBD594E42590000000038
:10ADB000443030303400000002464888064B1B887F
:10ADC000984208D1088840F67723984203D18888B2
:10ADD000C01E024B18807047042B0020062B002059
:10ADE00070B50E490E4801F034FE044600BF2546FA
:10ADF00025B100BF2846FCF7C7FD00BF00BFF72103
:10AE0000074801F017FE044600BF254625B100BFE4
:10AE10002846FCF7B9FD00BF00BF70BDB9AD020008
:10AE20004C2D002070B5054615B14FF4064070BD9D
:10AE30001848007B18B100201649087301E000F0A3
:10AE4000DFF81448007808281DD2DFE800F01C0461
:10AE5000080C101C141800F03FF8044616E000F02F
:10AE6000BDF8044612E000F099F804460EE000F048
:10AE700047F804460AE000F02DF9044606E000F029
:10AE80003BF9044602E048F20E6400BF00BF2046D2
:10AE9000CDE700003C3D00200D480089401C0C49D6
:10AEA000088100204880087300BF0DE000EB80019E
:10AEB000084A12F8211009B9012200E000220449D1
:10AEC0000A310A54411C88B20228EFDB70470000A7
:10AED0003C3D0020143D002010B5084800F036F835
:10AEE00040B900200549891E08704880486041F635
:10AEF0001D5010BD00F072F8FBE700003E3D002041
:10AF000070B50F48458805EB85000E4901EB8000C0
:10AF1000C06878B904200A49087005EB8500094A21
:10AF200002EB8000002301224168074801F0BEFEC9
:10AF3000044602E000F090F80446204670BD000090
:10AF40003C3D0020143D0020AC2C002010B50146F3
:10AF50000022002018E00F4B1B5C9BB100240D4B1E
:10AF60001C5400EB80030C4C04EB8303DB684BB9EF
:10AF700000EB800304EB83031B7C012B02D10880D0
:10AF8000012203E0431C98B20228E4DB00BF104614
:10AF900010BD0000463D0020143D0020F8B50C48CF
:10AFA00044680C4800680B49898800EB810560887B
:10AFB000C01C86B20320064908700020B300009030
:10AFC000084629464268044801F026FFF8BD000003
:10AFD0003C3D0020802C0020AC2C002010B50749FF
:10AFE0004888091D04F036FE18B1FFF7D7FF044664
:10AFF00002E0FFF785FF0446204610BD3C3D0020DF
:10B0000010B514480078082820D2DFE800F0041FAB
:10B010001F0A1016171BFFF73FFF01200D4908708C
:10B0200015E000F075F802200A4908700FE000F002
:10B0300029F806200749087009E000BF07200549E4
:10B04000087004E001200349087000E000BF00BF61
:10B0500010BD00003C3D002010B5052006490870D9
:10B06000022006498880084600230122016804481E
:10B0700001F01CFE10BD00003C3D0020802C002093
:10B08000AC2C0020104908681049498801EB810167
:10B090000F4A02EB810149680B4A11600B4949884C
:10B0A00001EB81010A4A02EB810148600649898867
:10B0B000064A528802EB8202054B03EB82021181A1
:10B0C0000221014A91807047802C00203C3D0020E5
:10B0D000143D002010B5062005490870498801EB91
:10B0E0008101044A02EB8101486803F0D1FB10BDE5
:10B0F0003C3D0020143D002010B507200349087096
:10B100000020486003F0D4FB10BD00003C3D00204F
:10B11000054A50684288D21C91B2044A92880A4477
:10B12000024B9A80704700003C3D0020802C00209C
:10B130002DE9F04186B00446A588208850282ED0FD
:10B1400004DC352836D0362808D163E0522802D0F6
:10B150005428F9D103E0284601F044F97BE0142299
:10B16000444901A8FBF77EF9ADF80650284600F0E7
:10B17000D1FBADF80800BDF8080000F02DF9002261
:10B180003D4801782846FDF7F3F900223B48017855
:10B190002846FDF7EDF901A8FFF704FB5BE0A01DD1
:10B1A000FEF7E2F928B10121284601F05BF906F02B
:10B1B000F3FA50E00027A58804F10A063048017828
:10B1C0002846FDF7BFF900B945E000222C48017878
:10B1D0002846FDF7CDF9E088B0F5857F14D0E088EA
:10B1E00090B9708801280FD1B18800222846A1DFCC
:10B1F0008046B8F1000F06D10127012221480178CD
:10B200002846FDF7B5F900BF1FB90021284606F012
:10B2100011F920E00027A58804F10A0619480178F1
:10B220002846FDF78FF900B915E00022154801788E
:10B230002846FDF79DF9E08840B9B088012805D17E
:10B24000B07908B1012000E00020074639462846C1
:10B2500006F0F0F800BF00BF00BF00220A490B480B
:10B260000078FDF70FF900BF05F002FC06B0BDE85D
:10B27000F081000050210300A32B0020A22B00200E
:10B28000A52B0020A62B00204B7B0200A12B002029
:10B2900010B50446207858B9608801F0A3F860889A
:10B2A00005F0D6FB6088FEF729F906F075FA00E094
:10B2B00000BF00BF10BD00007CB504462078082800
:10B2C00040D1607A00283DD1207A012814D0072887
:10B2D00002D0082834D12BE0A08800F04BFA0546B4
:10B2E0004FF6FF70854206D00121284601F0BAF8DA
:10B2F0002846FEF703F924E0A0886A46012103F0FE
:10B300004FFC06469EB90198007880B1A08800F0F5
:10B3100031FA05464FF6FF70854207D001220B48EF
:10B3200001782846FDF724F905F0A2FB00BF08E0EC
:10B3300007480068012802D1054801F097FE00E0A7
:10B3400000BF00BF06F028FA7CBD0000A22B002041
:10B350009C2B002070B50B48FEF71FFE0A4B0CCB50
:10B36000841843F10005094903C9201A75EB01004F
:10B3700004D24FF08073E41845F1000520462946B9
:10B3800070BD0000282C0020382C0020402C00200C
:10B390002DE9F04104468846E0B2FEF771F8054613
:10B3A000287802F0A9FA07466878012800D100E061
:10B3B0000020784080F001064EB10648D0E9001028
:10B3C000002359405840014301D106F0FFF8BDE881
:10B3D000F0810000202C00201CB50446044903C95C
:10B3E000CDE9000100226946204603F04EFD1CBD58
:10B3F000742103002DE9FC478146484600F08AFA93
:10B400000546002600274FF003084FF0010A4FF6CB
:10B41000FF7085420CD06A460821284603F0C0FB25
:10B4200004462CB90198861D8788D0F8008000BF9B
:10B4300000BF43463A4631464846B1DF0446042C35
:10B4400001D1112415E0082C01D1002411E00B2CAE
:10B450000FD14FF0000A08F0020010B14FF00108C0
:10B4600007E006B927B1002600274FF0030800E0E7
:10B4700003240B2CDDD0BAF1000F00D10B242046A1
:10B48000BDE8FC872DE9FC478046404600F042FAC3
:10B4900006464FF6FF70864203D143F20200BDE834
:10B4A000FC874FF001094FF0000A00BF4FF0000A7F
:10B4B0004A46511C1FFA81F96B460821304603F0B9
:10B4C000A3FB04460CBB019D032028602A1DA91D77
:10B4D00040462B68B2DF044634B932460821304674
:10B4E00003F008FC04460FE00C2C02D14FF0010AD7
:10B4F00002E0052C00D100240821304603F0EAFBCD
:10B50000074607B1032400BF02E0072C00D10C243A
:10B51000BAF1000FCAD100BF2046C0E710B50446FB
:10B52000044800884FF6FF71884201D005F0ACFA5C
:10B5300010BD0000AE2B0020FEB5044602A801900D
:10B54000204600F0E7F906466A460121304603F03E
:10B5500027FB05460DB10020FEBD01980078FBE7F2
:10B5600070B505464FF6FF760E48B3DF04460CB1C2
:10B57000032070BD00BF4FF6FF720A4801882846BD
:10B58000AFDF044643F20300844204D1054800883B
:10B59000401C0449088043F203008442EBD020465B
:10B5A000E7E70000B02B002070B504460D462046AA
:10B5B00000F01DF8A84201D9022070BDA0884FF606
:10B5C000FF71884204D0208810B1A068401C08B9DF
:10B5D0000120F2E70020F0E7024613468B4204D236
:10B5E0001868401C08B1012070470020FCE70146A4
:10B5F0004A8801F10C0000EB8200704710B501F0A1
:10B6000099FD10BD3EB504460D4620780221B1EBF0
:10B61000500F01D000203EBDB4F80100ADF8080085
:10B62000E0788DF80A00A188ADF80010A0798DF8B7
:10B63000020001AA69462846FCF7C6F8032201A9C0
:10B6400002A8FAF746FF08B90120E4E70020E2E784
:10B6500070B504460D46142C03DA2046FCF79EFF15
:10B6600010B943F2020070BD04EB8400054901EB00
:10B670004000D0F802102960C188A980007AA87122
:10B680000020F0E78437002030B591B005462888C7
:10B69000102801D011B030BD2C22291D06A8FAF7C0
:10B6A000E1FE4FF6FF749DF81C000321B1EB500F33
:10B6B00035D003F095FB9DF81C00400820B101280F
:10B6C00003D0022828D114E000BF09E0049800F15B
:10B6D000110107A8FBF77FFF10B1BDF8144006E089
:10B6E00003AA05A9072003F045FB0028EED100BFFF
:10B6F00013E008E00498411C07A8FFF783FF10B18E
:10B70000BDF8144006E003AA05A9072003F032FBA8
:10B710000028EFD100BF00E000BF00BF00BFBDF8B0
:10B72000180000EB8000124921F81040BDF8180005
:10B7300000EB800001EB40000799C0F80210BDF853
:10B740002010C1809DF8221001724FF6FF708442D4
:10B750000CD0BDF81800ADF80600ADF80840002088
:10B760008DF8040001A8FFF745F800BF00BF91E77E
:10B770008437002070B505464FF6FF70854200D132
:10B7800070BD00240EE004EB8400094931F810007C
:10B79000A84205D12046FCF701FF08B12046EFE79B
:10B7A000601C84B2142CEEDB4FF6FF70E8E700005B
:10B7B000843700203EB505460C4603F011FB0BE034
:10B7C000BDF80800A04207D02846019900F00EF805
:10B7D00010B1BDF808003EBD6A4602A9072003F07B
:10B7E000C9FA0028ECD14FF6FF70F4E72DE9F047D5
:10B7F00004460D4604F1110605F111071022691CDB
:10B80000601CFAF766FE48B9601C00F01AFA28B10D
:10B81000681C00F016FA08B1012000E00020824602
:10B8200039463046FBF7D7FE804630780221B1EB2F
:10B83000500F10D030780321B1EB500F0BD0387877
:10B840000221B1EB500F06D038780321B1EB500F35
:10B8500001D0012000E000208146B8F1000F02D0A5
:10B86000B9F1000F05D1BAF1000F05D0B9F1000F01
:10B8700002D10120BDE8F0870020FBE702461088D6
:10B8800008B101207047002105E0901C405C08B120
:10B890000120F7E7491C0829F7D30020F2E770B52B
:10B8A00005460C462846FFF7E9FF08B9002070BDA1
:10B8B00028882188884201D00020F8E70822A11CAE
:10B8C000A81CFAF706FE08B90120F0E70020EEE711
:10B8D000142804DA00EB8002014B23F812107047A1
:10B8E0008437002070B506463046FFF743FF044614
:10B8F000304603F060F9054645B9142C06DA4FF6D8
:10B90000FF7004EB8401024A22F81100284670BD42
:10B910008437002010B50446142C03DA2046FCF7C7
:10B920003DFE10B94FF6FF7010BD04EB84000249D4
:10B9300031F81000F8E70000843700203EB50446D7
:10B9400003F04EFA10E0019800F146012046FFF79F
:10B95000A6FF30B9019800F12A012046FFF79FFFAA
:10B9600010B1BDF808003EBD6A4602A9072003F0E9
:10B9700001FA0028E7D14FF6FF70F4E770B50446EE
:10B980000D4609486060094800F0EAFF50B901F02F
:10B99000B7FD064908741C238C2205490548006838
:10B9A00000F01EFF002070BD7C230300543C0020EB
:10B9B000B83B0020882303002DE9F04106460C46E1
:10B9C00048F20E6736B10020434948604FF4064004
:10B9D000BDE8F081207930B101280AD0022835D0A5
:10B9E00003286DD140E00120207102F061FF07467D
:10B9F00067E04FF00008002519E005EB85003749A6
:10BA000011F82000022810D1002005EB8501334AEF
:10BA100002F821004FF0010805EB850102EB8101DE
:10BA2000486802F035FF074603E0681C85B2022D26
:10BA3000E3DB00BFB8F1000F07D1012026490870F1
:10BA40000020486041F61D50C2E73AE00020207116
:10BA500002202349888008460023012201682148EA
:10BA600001F024F907462CE0002020711C490868E9
:10BA700002F00EFF07461C4845881948D0F80080A0
:10BA800005EB8500154901EB80004068144908600A
:10BA900005EB8500114901EB8000C0F804801048D7
:10BAA000808805EB85010D4A02EB810108810220A7
:10BAB0000B498880002005EB850102F8210000E099
:10BAC00000BF00BF2FB100200349486048F20D605D
:10BAD0007EE700207CE700006C2C0020143D002055
